:04000000FEEF3FF0E0
:107A5C0093809382280EC66EC56A770EC86E800E10
:107A6C00C76E12009AEC3DF0C580C5B040EF3DF0FA
:107A7C0042EF3DF03BEF3DF012009AEC3DF0C58437
:107A8C00C7A84BEF3DF04DEF3DF046EF3DF0120037
:107A9C00949C949EAC98B896AC84B06A4D0EAF6E24
:107AAC00AB8EAB88AC8A12004D6E38EC3DF0780E84
:107ABC00C1EC3DF04D50C1EC3DF04D50C1EC3DF0F2
:107ACC0043EC3DF012004D6E38EC3DF0780EC1ECFD
:107ADC003DF0400EC1EC3DF04D50C1EC3DF043EC9F
:107AEC003DF01200C150F00B0E09C16EC30EC21650
:107AFC00C050C70B2009C06EC050F80B0309C06EF4
:107B0C00C08EC280120000EE60F0640EEE6AE806D1
:107B1C00FDE100EE01F04A0EEE6AE806FDE1000E12
:107B2C00F86E0001F9EF3DF0C7B49FEF3DF0A1EF07
:107B3C003DF09AEF3DF0C5CF4BF01F0E4B16D8A47D
:107B4C00AAEF3DF0ACEF3DF09AEF3DF01200BD50C6
:107B5C00F00B0C09BD6EBA50F00B0C09BA6ECB6869
:107B6C00030ECA12CA84800EBE6EBB6ACF0EBD163F
:107B7C00CF0EBA1612004C6E9AEC3DF04CC0C9FFF9
:107B8C00C7B0CBEF3DF0CDEF3DF0C6EF3DF09AEC3A
:107B9C003DF0C5BCD4EF3DF0D6EF3DF0CFEF3DF05E
:107BAC0012004F6A4F50B00F5AEC3DF0000E5AECD9
:107BBC003DF0100E5AEC3DF04E6A000E69EC3DF0B3
:107BCC004E2A7F0E4E64EDEF3DF0EFEF3DF0E3EF0C
:107BDC003DF04F2A070E4F64F6EF3DF0F8EF3DF005
:107BEC00D8EF3DF01200010E926E946A936A896A86
:107BFC008A6A8B6A070EB46EF19ED59ED59CD59A77
:107C0C00D598D596D550F80B0609D56EF294480E3A
:107C1C00D76EE50ED66EF28AD58E9F6AA26AF18473
:107C2C00F190F06AA094F28EF28C2EEC3DF0ADEC5B
:107C3C003DF078EC3DF04EEC3DF02BEC3EF0D7EC0B
:107C4C003DF027EF3EF0FEEF3FF0040E4F6E0C0EB2
:107C5C004E6E340EE82EFED74E2EFCD74F2EFAD792
:107C6C00AE0E5AEC3DF0D50E5AEC3DF0800E5AECAF
:107C7C003DF0A80E5AEC3DF03F0E5AEC3DF0D30E01
:107C8C005AEC3DF0000E5AEC3DF0400E5AEC3DF033
:107C9C008D0E5AEC3DF0140E5AEC3DF0200E5AECC1
:107CAC003DF0000E5AEC3DF0A10E5AEC3DF0C00E2A
:107CBC005AEC3DF0DA0E5AEC3DF0120E5AEC3DF057
:107CCC00810E5AEC3DF07F0E5AEC3DF0D90E5AEC79
:107CDC003DF0F10E5AEC3DF0DB0E5AEC3DF0400E4F
:107CEC005AEC3DF0A40E5AEC3DF0A60E5AEC3DF0C9
:107CFC00AF0E5AEC3DF0040E4F6E0C0E4E6E340E61
:107D0C00E82EFED74E2EFCD74F2EFAD712000000CD
:107D1C00000000000001FF0100000700070028FE22
:107D2C0028FE284854FE5424C4C81026466C92AA37
:107D3C00440A000A060000003844820000824438DD
:107D4C000028107C102810107C1010000A0C000069
:107D5C001010101010000606000004081020407CC3
:107D6C008A92A27C2041FF010042868A9262848220
:107D7C00A2D28C182848FE08E4A2A2A29C3C5292E3
:107D8C00920C808E90A0C06C9292926C60929294A5
:107D9C0078006C6C0000006A6C00001028448200B3
:107DAC002828282828008244281040808A90607C4B
:107DBC00829A92727E9090907EFE9292926C7C82CD
:107DCC00828244FE82824438FE92929282FE90908D
:107DDC0090807C8292925EFE101010FE0082FE82D9
:107DEC0000040282FC80FE10284482FE0202020281
:107DFC00FE601860FEFE201008FE7C8282827CFEF3
:107E0C00909090607C828A847AFE909894626492BE
:107E1C0092924C8080FE8080FC020202FCF80402EC
:107E2C0004F8FE041804FEC6281028C6E0100E1034
:107E3C00E0868A92A2C200FE8282004020100804D2
:107E4C00008282FE002040804020020202020200DA
:107E5C0080402000042A2A2A1EFE1222221C1C22E8
:107E6C002222041C222212FE1C2A2A2A18107E907E
:107E7C009040182525251EFE1020201E0022BE0233
:107E8C0000040222BC00FE081422000082FE020044
:107E9C003E201C201E3E1020201E1C2222221C3F95
:107EAC00242424181824243F013E10202010122AC8
:107EBC002A2A0420FC2222043C0202043E3804023A
:107ECC0004383C020C023C22140814223009090923
:107EDC003E22262A3222106C8282000000FE000014
:107EEC000082826C10204020102000000000000056
:107EFC0002190232024B0264027D029502AD02C5E8
:107F0C0002DC02F3020A03200336034B0360037402
:107F1C000388039B03AE03C003D203E303F3030202
:107F2C000410041D042A04350440044A0453045B61
:107F3C0004620468046D0471047404760477047795
:107F4C00047604740471046D04680462045B0453C5
:107F5C00044A04400435042A041D0410040204F3EA
:107F6C0003E303D203C003AE039B038803740360D3
:107F7C00034B03360320030A03F302DC02C502ADF4
:107F8C000295027D0264024B02320219020002E6E3
:107F9C0001CD01B4019B018201690151013901211B
:107FAC00010A01F300DC00C600B0009B00860072E1
:107FBC00005E004B00380026001400030000000097
:107FCC000003001400260038004B005E007200868F
:107FDC00009B00B000C600DC00F3000A012101394F
:107FEC00015101690182019B01B401CD01E601003F
:047FFC0089EF3DF0DC
:020000040020DA
:080000005043424144322E300E
:020000040030CA
:0E000000240E321EFF8581FF0FC00FE00F405F
:00000001FF
