:04000000FEEF3FF0E0
:1078B60093809382280EC66EC56A770EC86E800EB8
:1078C600C76E1200B6EC3CF0C580C5B06DEF3CF05B
:1078D6006FEF3CF068EF3CF01200B6EC3CF0C5846C
:1078E600C7A878EF3CF07AEF3CF073EF3CF012005B
:1078F600949C949EAC98B896AC84B06A4D0EAF6ECC
:10790600AB8EAB88AC8A12005C6E65EC3CF0780EF0
:10791600DDEC3CF05C50DDEC3CF05C50DDEC3CF02A
:1079260070EC3CF012005C6E65EC3CF0780EDDEC21
:107936003CF0400EDDEC3CF05C50DDEC3CF070ECD5
:107946003CF01200C150F00B0E09C16EC30EC216F8
:10795600C050C70B2009C06EC050F80B0309C06E9B
:10796600C08EC2801200C7B4BBEF3CF0BDEF3CF046
:10797600B6EF3CF0C5CF5AF01F0E5A16D8A4C6EF84
:107986003CF0C8EF3CF0B6EF3CF01200BD50F00BF7
:107996000C09BD6EBA50F00B0C09BA6ECB68030E1B
:1079A600CA12CA84800EBE6EBB6ACF0EBD16CF0E3B
:1079B600BA1612005B6EB6EC3CF05BC0C9FFC7B0EE
:1079C600E7EF3CF0E9EF3CF0E2EF3CF0B6EC3CF0E0
:1079D600C5BCF0EF3CF0F2EF3CF0EBEF3CF01200F0
:1079E7000000000000000000025051525354555649
:1079F700578100000000000000000148494A4B4C35
:107A07004D4E4F81404142434445464780000E5BFF
:107A17006EB90E5C6E9F0E5D6E800ED2EC3DF070FF
:107A2700EC3CF0050E5B6E100E5C6E620E5D6E80B8
:107A37000ED2EC3DF070EC3CF012005E6A5E50B086
:107A47000F87EC3CF0000E87EC3CF0100E87EC3C07
:107A5700F05D6A000E96EC3CF05D2A7F0E5D6437A0
:107A6700EF3DF039EF3DF02DEF3DF05E2A070E5E5A
:107A77006440EF3DF042EF3DF022EF3DF01200E7AA
:107A87000EF66E790EF76E000EF86E00EE97F01098
:107A9700EE2DF00900F5CFEEFFE550E150FAE101D8
:107AA700EE00F0500EEE6AE806FDE100EE60F037FA
:107AB7000EEE6AE806FDE100EE01F0590EEE6AE807
:107AC70006FDE1000EF86E00019CEF3DF065EC3C11
:107AD700F0D00EDDEC3CF0070EDDEC3CF0900EDD57
:107AE700EC3CF070EC3CF05D6A000E5C6E65EC3CC3
:107AF700F0D00EDDEC3CF0F50E5C24F66E7F0E5DEB
:107B070020F76E0800F550DDEC3CF0000EDDEC3C94
:107B1700F070EC3CF05C4A5D2A5D5009E1060E5CB2
:107B27005CD8A099EF3DF09BEF3DF07AEF3DF01266
:107B370000010E926E946A936A896A8A6A8B6A0751
:107B47000EB46EF19ED59ED59CD59AD598D596D56F
:107B570050F80B0609D56EF294480ED76EE50ED68F
:107B67006EF28AD58E9F6AA26AF184F190F06AA0BC
:107B770094F28EF28C5BEC3CF0C9EC3CF0A5EC3C4B
:107B8700F07BEC3CF028EC3EF021EC3DF06AEC3D5C
:107B9700F00AEC3DF0CEEF3DF0FEEF3FF05E6EB643
:107BA700EC3CF0C580C5B0DBEF3DF0DDEF3DF0D636
:107BB700EF3DF0B6EC3CF05EC0C9FFC7B0E6EF3D65
:107BC700F0E8EF3DF0E1EF3DF0B6EC3CF0C5BCEF7F
:107BD700EF3DF0F1EF3DF0EAEF3DF0B6EC3CF05B46
:107BE700C0C9FFC7B0FAEF3DF0FCEF3DF0F5EF3D40
:107BF700F0C5BC01EF3EF003EF3EF0FCEF3DF0B601
:107C0700EC3CF05CC0C9FFC7B00CEF3EF00EEF3E96
:107C1700F007EF3EF0C5BC13EF3EF015EF3EF00E58
:107C2700EF3EF0B6EC3CF05DC0C9FFC7B01EEF3EBB
:107C3700F020EF3EF019EF3EF0C5BC25EF3EF027F0
:107C4700EF3EF020EF3EF01200040E5E6E0C0E5D6C
:107C57006E340EE82EFED75D2EFCD75E2EFAD7AE19
:107C67000E87EC3CF0D50E87EC3CF0800E87EC3CA1
:107C7700F0A80E87EC3CF03F0E87EC3CF0D30E8764
:107C8700EC3CF0000E87EC3CF0400E87EC3CF08DAE
:107C97000E87EC3CF0140E87EC3CF0200E87EC3C92
:107CA700F0000E87EC3CF0A10E87EC3CF0C00E878D
:107CB700EC3CF0DA0E87EC3CF0120E87EC3CF081DE
:107CC7000E87EC3CF07F0E87EC3CF0D90E87EC3C3E
:107CD700F0F10E87EC3CF0DB0E87EC3CF0400E87B2
:107CE700EC3CF0A40E87EC3CF0A60E87EC3CF0AF22
:107CF7000E87EC3CF0040E5E6E0C0E5D6E340EE8E3
:107D07002EFED75D2EFCD75E2EFAD712000000009C
:107D17000000000001FF0100000700070028FE28FF
:107D2700FE284854FE5424C4C81026466C92AA4420
:107D37000A000A0600000038448200008244380026
:107D470028107C102810107C1010000A0C0000105E
:107D570010101010000606000004081020407C8A4E
:107D670092A27C2041FF010042868A92628482A20D
:107D7700D28C182848FE08E4A2A2A29C3C529292F8
:107D87000C808E90A0C06C9292926C6092929478C4
:107D9700006C6C0000006A6C000010284482002808
:107DA70028282828008244281040808A90607C82F6
:107DB7009A92727E9090907EFE9292926C7C8282D2
:107DC7008244FE82824438FE92929282FE90909084
:107DD700807C8292925EFE101010FE0082FE82006E
:107DE700040282FC80FE10284482FE02020202FE88
:107DF700601860FEFE201008FE7C8282827CFE9066
:107E07009090607C828A847AFE90989462649292C1
:107E1700924C8080FE8080FC020202FCF80402047F
:107E2700F8FE041804FEC6281028C6E0100E10E05D
:107E3700868A92A2C200FE828200402010080400B7
:107E47008282FE002040804020020202020200805F
:107E5700402000042A2A2A1EFE1222221C1C22224B
:107E670022041C222212FE1C2A2A2A18107E909015
:107E770040182525251EFE1020201E0022BE0200C8
:107E8700040222BC00FE081422000082FE02003E0B
:107E9700201C201E3E1020201E1C2222221C3F24B4
:107EA7002424181824243F013E10202010122A2AC7
:107EB7002A0420FC2222043C0202043E3804020465
:107EC700383C020C023C2214081422300909093EEE
:107ED70022262A3222106C8282000000FE00000057
:107EE70082826C1020402010200000000000000259
:107EF700190232024B0264027D029502AD02C502ED
:107F0700DC02F3020A03200336034B036003740306
:107F170088039B03AE03C003D203E303F303020406
:107F270010041D042A04350440044A0453045B0466
:107F3700620468046D04710474047604770477049A
:107F47007604740471046D04680462045B045304CA
:107F57004A04400435042A041D0410040204F303F0
:107F6700E303D203C003AE039B03880374036003D8
:107F77004B03360320030A03F302DC02C502AD02FA
:107F870095027D0264024B02320219020002E601E9
:107F9700CD01B4019B018201690151013901210120
:107FA7000A01F300DC00C600B0009B0086007200E7
:107FB7005E004B003800260014000300000000009C
:107FC70003001400260038004B005E007200860094
:107FD7009B00B000C600DC00F3000A012101390153
:107FE7005101690182019B01B401CD01E601000144
:097FF700020405060043EF3DF011
:020000040020DA
:080000005043424144322E300E
:020000040030CA
:0E000000240E321EFF8581FF0FC00FE00F405F
:00000001FF
